:020000040800F2
:10000000B80A002001010008372500083F21000838
:100010003525000809120008D1270008000000005B
:100020000000000000000000000000005B25000848
:100030000B12000800000000592500085D2500088B
:100040001B0100081B0100081B0100081B01000820
:100050001B0100081B0100081B0100081B01000810
:100060001B0100081B0100081B0100081B01000800
:100070001B0100081B0100081B0100081B010008F0
:100080001B0100081B0100081B0100081B010008E0
:100090001B0100081B0100081B0100080D120008CD
:1000A0001B0100081B0100081B0100081B010008C0
:1000B000F92500081B0100081B0100081B010008AE
:1000C0001B0100081B0100081B0100081B010008A0
:1000D0001B0100081B0100081B0100081B01000890
:1000E0001B0100081B0100081B010008DFF80CD0F1
:1000F00001F078F800480047D9300008B80A00201D
:100100000648804706480047FEE7FEE7FEE7FEE7B1
:10011000FEE7FEE7FEE7FEE7FEE7FEE7B1250008A3
:10012000ED0000082DE9FF4FA3B06FF00302239804
:100130002399406802908968209123990988189131
:1001400002EB8101084403902698C0081F9000F03C
:1001500084831898C008219024980168039801604E
:100160002498039950F8042F41F8042F50F8042FD5
:1001700041F8042F50F8042F41F8042F00220C926C
:1001800001921392129210920F920E920D92209D54
:10019000029C50F8042F41F8042F50F8042F41F826
:1001A000042F50F8042F41F8042F42684A600831A8
:1001B00008300391249054F8040B0B9054F804ABCE
:1001C00054F8040B089054F8049BDDF884B054F8FC
:1001D000048BBBF1000F54F8047B54F8046B00F05F
:1001E000B28200BF55F8040B009054F8040B0A903B
:1001F00000990B9800F08FFC11905046009900F088
:100200008AFC1B900099089800F085FC17904846DE
:10021000009900F080FC1A904046009900F07BFCA9
:1002200019903846009900F076FC169030460099F7
:1002300000F071FC159000990A9800F06CFC149085
:1002400055F8040B009054F8040B0B901199019889
:1002500000F009FC01901B99139800F004FC139026
:100260001799129800F0FFFB12901A99109800F05D
:10027000FAFB109019990F9800F0F5FB0F90169962
:100280000E9800F0F0FB0E9015990D9800F0EBFB26
:100290000D9014990C9800F0E6FB0C9050460099D4
:1002A00000F039FC11900099089800F034FC1B9084
:1002B0004846009900F02FFC17904046009900F046
:1002C0002AFC1A903846009900F025FC1990304617
:1002D000009900F020FC169000990A9800F01BFC91
:1002E000159000990B9800F016FC149055F8040B2B
:1002F000009054F804AB1199019800F0B4FB019000
:100300001B99139800F0AFFB13901799129800F007
:10031000AAFB12901A99109800F0A5FB1090199959
:100320000F9800F0A0FB0F9016990E9800F09BFB21
:100330000E9015990D9800F096FB0D9014990C985D
:1003400000F091FB0C900099089800F0E4FB1190EC
:100350004846009900F0DFFB1B904046009900F0F2
:10036000DAFB17903846009900F0D5FB1A9030461A
:10037000009900F0D0FB199000990A9800F0CBFB8F
:10038000169000990B9800F0C6FB15905046009906
:1003900000F0C1FB149055F8040B009054F8040BC6
:1003A00008901199019800F05EFB01901B99139839
:1003B00000F059FB13901799129800F054FB12901B
:1003C0001A99109800F04FFB109019990F9800F0AF
:1003D0004AFB0F9016990E9800F045FB0E90159968
:1003E0000D9800F040FB0D9014990C9800F03BFB29
:1003F0000C904846009900F08EFB11904046009901
:1004000000F089FB1B903846009900F084FB1790A0
:100410003046009900F07FFB1A9000990A9800F08E
:100420007AFB199000990B9800F075FB16905046D6
:10043000009900F070FB15900099089800F06BFB94
:10044000149055F8040B009054F8049B11990198EE
:1004500000F009FB01901B99139800F004FB139026
:100460001799129800F0FFFA12901A99109800F05C
:10047000FAFA109019990F9800F0F5FA0F90169962
:100480000E9800F0F0FA0E9015990D9800F0EBFA26
:100490000D9014990C9800F0E6FA0C9040460099E3
:1004A00000F039FB11903846009900F034FB1B90A6
:1004B0003046009900F02FFB179000990A9800F041
:1004C0002AFB1A9000990B9800F025FB19905046D2
:1004D000009900F020FB16900099089800F01BFB93
:1004E00015904846009900F016FB149055F8040B3F
:1004F000009054F8048B1199019800F0B4FA01901F
:100500001B99139800F0AFFA13901799129800F006
:10051000AAFA12901A99109800F0A5FA1090199959
:100520000F9800F0A0FA0F9016990E9800F09BFA21
:100530000E9015990D9800F096FA0D9014990C985C
:1005400000F091FA0C903846009900F0E4FA11900E
:100550003046009900F0DFFA1B9000990A9800F0ED
:10056000DAFA179000990B9800F0D5FA1A905046D5
:10057000009900F0D0FA19900099089800F0CBFA91
:1005800016904846009900F0C6FA1590404600992A
:1005900000F0C1FA149055F8040B009054F8047B55
:1005A0001199019800F05FFA01901B99139800F0DF
:1005B0005AFA13901799129800F055FA12901A9956
:1005C000109800F050FA109019990F9800F04BFA1B
:1005D0000F9016990E9800F046FA0E9015990D9806
:1005E00000F041FA0D9014990C9800F03CFA0C9030
:1005F0003046009900F08FFA119000990A9800F0A7
:100600008AFA1B9000990B9800F085FA17905046D3
:10061000009900F080FA1A900099089800F07BFA8F
:1006200019904846009900F076FA169040460099D5
:1006300000F071FA15903846009900F06CFA1490A9
:1006400055F8040B009054F8046B1199019800F0D0
:100650000AFA01901B99139800F005FA1390179964
:10066000129800F000FA12901A99109800F0FBF915
:10067000109019990F9800F0F6F90F9016990E98AE
:1006800000F0F1F90E9015990D9800F0ECF90D902D
:1006900014990C9800F0E7F90C9000990A9800F072
:1006A0003AFA119000990B9800F035FA1B905046D9
:1006B000009900F030FA17900099089800F02BFA92
:1006C0001A904846009900F026FA19904046009981
:1006D00000F021FA16903846009900F01CFA1590A7
:1006E0003046009900F017FA1490ABF1010B119904
:1006F000019800F0B8F901901B99139800F0B3F934
:1007000013901799129800F0AEF912901A99109858
:1007100000F0A9F9109019990F9800F0A4F90F9022
:1007200016990E9800F09FF90E9015990D9800F00B
:100730009AF90D9014990C9800F095F90C90BBF172
:10074000000F7FF44FAD189810F0070B63D000BF77
:1007500055F8040B009054F8040B0A9000990B987C
:1007600000F0D9F911905046009900F0D4F91B908F
:100770000099089800F0CFF917904846009900F0CA
:10078000CAF91A904046009900F0C5F91990384608
:10079000009900F0C0F916903046009900F0BBF9BE
:1007A000159000990A9800F0B6F9CDF82CA0DDF864
:1007B00020A0CDF82090C1461490B84637460A9E36
:1007C0001199019800F04FF901901B99139800F0CE
:1007D0004AF913901799129800F045F912901A9956
:1007E000109800F040F9109019990F9800F03BF91B
:1007F0000F9016990E9800F036F90E9015990D98F5
:1008000000F031F90D9014990C9800F02CF90C902F
:10081000BBF1010B9CD102982030029025990198E0
:1008200008602598139940F8041F129940F8041F96
:10083000109940F8041F0F9940F8041F0E9940F8D2
:10084000041F0D9940F8041F0C9941600830259051
:100850001F98401E1F907FF47FAC269810F0070869
:1008600050D0249800250168039801602498209EA8
:10087000001D24900398029C001D0390DDF86090F9
:100880003168206800F047F9294600F0ECF8371D80
:10089000261D0546B9F1010429D0B4F1004F7DD2DF
:1008A000002C24DD361F3F1F14F0010F09D057F82C
:1008B000041F56F8040F00F02EF9294600F0D3F873
:1008C0000546641013D07968706800F024F9294651
:1008D00000F0C9F8054657F8081F56F8080F00F051
:1008E0001AF9294600F0BFF80546641EEBD1259899
:1008F00005602598001D25900298001D0290B8F112
:100900000108AED12398189940684C1EA30820D046
:10091000B3F1004F56D2002B1BDD029A01469C46D4
:1009200052F8045B41F8045B52F8045B41F8045B45
:1009300052F8085B41F8085B52F8045C41F8045C2B
:10094000BCF1010CECD1029900EB031001EB031197
:10095000029114F0030104BF27B0BDE8F08FB1F19C
:10096000004F44D20029DCBF27B0BDE8F08F031F41
:10097000029A121F11F0010F03D052F8040F43F82E
:10098000040F480804BF27B0BDE8F08F51685960D4
:1009900052F8081F43F8081F401E00E003E0F5D19D
:1009A00027B0BDE8F08F3968306800F0B4F8294608
:1009B00000F059F80546641E06F1040607F1040725
:1009C000F1D194E70299096840F8041B029951F8A3
:1009D000042F40F8042B51F8042F40F8042B4A68E8
:1009E000083140F8042B02915B1EEBD1B1E7029A6B
:1009F000126840F8042B029A121D0292491EF6D189
:100A000027B0BDE8F08F70B50446049821800844F3
:100A10008000011F1D461846A26000F019F86560AD
:100A200070BD202A04DB203A21FA02F00021704731
:100A300021FA02F3D040C2F1200291400843194646
:100A40007047D2B201E000F8012B491EFBD270477B
:100A50000022F6E710B513460A4604461946FFF78A
:100A6000F0FF204610BDF0B480EA0102D40F42002E
:100A7000B2EB410F02D20246084611464A0042D06C
:100A8000C30DDDB2C1F3C752AD1A202D35DAC1F363
:100A9000160141F4000204B15242C5F1200602FAE7
:100AA00006F12A411044B3EBD05F23D0C4B1012D2D
:100AB000A0EBC35009DCF0BC4FF0004202EAC35285
:100AC000DBB200F5000000F068BA400000F1807071
:100AD00000EBC350A0F1807040EAD170490009E0FA
:100AE000490841EAC071A0EBC35000F5000040087E
:100AF00000EBC350F0BC00F047BA6142012202EBA8
:100B00004101001BF6E7F0BC704781F00041AAE705
:100B100080F00040A7E780EA010210B502F0004330
:100B2000400022D04A001FD0010E01EB1261C0F339
:100B30005600C2F3560240F4000042F40002A0FB4B
:100B4000022000047F39140400D0401C50EA1240F7
:100B500001D44000491EC2B20C0604EBD010401C68
:100B60004008802A02D003E0002010BD20F00100E0
:100B7000002900DA0020184310BD30B480EA0102D9
:100B800002F0004530F0004221F0004013D090B157
:100B9000C30DD40DC2F31601C0F31600E41A41F4DC
:100BA000000140F400027D34914201D3641C00E056
:100BB0004900002C02DA30BC002070474FF40000DE
:100BC0000023914201D3891A034340084FEA4101AF
:100BD000F7D151B1914202D14FF0004105E002D26C
:100BE0004FF0010101E06FF0010103EBC450284414
:100BF00030BC00F0C9B92DE9FE4F804681EA030000
:100C0000C00F0C46009021F0004123F00045B8EBE6
:100C10000200A94105D24046214690461C460B469B
:100C2000024623F00040104347D0270DC7F30A00C7
:100C3000C3F30A510290401A019040286BDAC3F3C3
:100C4000130040F4801B0098924620B10023D2EBA1
:100C5000030A63EB0B0B01985946C0F14002504662
:100C600000F071F906460D4650465946019A00F0CB
:100C700079F910EB08006141002487EA115284EAF7
:100C8000E7731A4340D0009A62B3019A012A4FEAEF
:100C9000075215DC001B61EB02014FF0004202EA33
:100CA0000752CDE90042001C41F5801132462B4627
:100CB00000F0AEF903B0BDE8F08F40462146F9E7F9
:100CC000001B61EB0201001C41F5801300185B4121
:100CD0002018A2F5001747EB030140EAD570B619BA
:100CE0006D4111E06D084FEA360645EAC0754FEADE
:100CF0000752001B61EB0201001C41F580114908FD
:100D00004FEA30000019514132462B4603B0BDE88E
:100D1000F04F00F070B90098012240000023D0EBA2
:100D2000020263EBE073009821464FEAE074B8EBEF
:100D3000000061EB0401E9E783F000435BE781F029
:100D4000004158E72DE9FE4F81EA030404F0004416
:100D500021F0004100944FF0000B23F0004350EAD3
:100D600001045ED052EA03045BD0C3F30A54C1F31A
:100D70000A552C44A4F2F3340194A0FB0254C1F3AD
:100D8000130141F48011C3F3130343F4801301FBF7
:100D9000024400FB034E840A970A44EA815447EA5E
:100DA0008357A4FB076802958D0A05FB07854FEA68
:100DB000932C04FB0C542705029D4FEA065847EA82
:100DC0001637B5EB08056EEB070C870E920E47EA57
:100DD000811742EA8312A7FB0201B6EB0B0164EB19
:100DE00000042B0D43EA0C335E1844EB1C50DA462A
:100DF0005146E7FB0201C5F313044FEA0B3343EA04
:100E000014534FEA0432019C43EA0603A4F10C0494
:100E10000294009CCDE900B400F0FAF803B0BDE8FC
:100E2000F08F00200146F9E796230022114600F0DA
:100E3000B4B800F0004230F000400AD0C10D01F516
:100E40006071C0F3160042EA0151C2084007114325
:100E5000704700200146704701F0004330B421F094
:100E6000004150EA010206D00A0DA2F56072C1F3FA
:100E70001301002A02DC30BC00207047440F44EA12
:100E8000C104C100E01830BC00EBC25000F07CB8D7
:100E9000002801DBC0F10040002901DBC1F1004165
:100EA00081427047002801DBC0F10040002901DBCE
:100EB000C1F100418842704730B50B460146002021
:100EC0002022012409E021FA02F59D4205D303FA0C
:100ED00002F5491B04FA02F52844151EA2F101028D
:100EE000F1DC30BD2DE9F05F0546002092469B46BF
:100EF00088460646814640241BE028464146474630
:100F00002246FFF78EFD53465A46C01A914110D330
:100F100011461846224600F016F82D1A67EB010814
:100F20004F4622460120002100F00DF817EB000982
:100F30004E41201EA4F10104DFDC484631462A461A
:100F40004346BDE8F09F202A04DB203A00FA02F174
:100F5000002070479140C2F1200320FA03F31943A7
:100F600090407047202A06DBCB17203A41FA02F066
:100F700043EAE07306E041FA02F3D040C2F12002F6
:100F800091400843194670470029A8BF7047401C8C
:100F9000490008BF20F00100704710B4B0FA80FC8F
:100FA00000FA0CF050EA010404BF10BC704749B1CC
:100FB000CCF1200421FA04F411FA0CF118BF01213C
:100FC00021430843A3EB0C01CB1D4FEA00614FEA1C
:100FD000102042BF002010BC704700EBC3501044EB
:100FE0000029A4BF10BC7047401C490008BF20F076
:100FF000010010BC704710B5002B08DA401C41F10D
:10100000000192185B411A4301D120F0010010BD8C
:101010002DE9F04D92469B4611B1B1FA81F202E002
:10102000B0FA80F220329046FFF78DFF04460F465B
:1010300040EA0A0041EA0B0153465A46084313D0DE
:10104000114653EA010019D0C8F140025046FFF79B
:10105000E8FC05460E46504659464246FFF773FFE8
:10106000084305D0012004E020463946BDE8F08D54
:101070000020054346EAE0762C4337430A9863058F
:10108000E40AA0EB08000022FD0A44EA47540A30B3
:1010900002D500200146E9E7010510196941DDE9A3
:1010A000084500196941BDE8F04DA4E72DE9F04D70
:1010B00081EA030404F0004B21F0004514464FF090
:1010C000000A23F0004150EA050220D054EA010250
:1010D0001DD0C5F30A570246C5F31303C1F313002D
:1010E000C1F30A5640F4801543F48013A7EB0608B9
:1010F000101BD64608F2FD3873EB050002D308F149
:10110000010801E092185B41B8F1000F03DA0020FA
:101110000146BDE8F08D00204FF48011064684465C
:101120000EE0171B73EB050705D3121B63EB0503DA
:1011300006434CEA010C49084FEA300092185B4123
:1011400050EA0107EDD152EA030012D082EA04000E
:1011500083EA0501084305D0101BAB4106D20122EA
:10116000002306E000224FF0004302E06FF001028E
:1011700053101AEB06004CEB085110EB0A0041EB40
:101180000B01BDE8F04DFFF736BFC1F30A52C1F3C2
:10119000130140F2FF3341F480119A4202DA002039
:1011A0000146704740F233439A42A2F2334202DCD6
:1011B0005242FFF736BCFFF7C6BE000030B500292B
:1011C00004DB4FF00044404264EB0101002B04DBE0
:1011D0004FF00044524264EB0303994208BF90422F
:1011E00030BD0000064C074D06E0E06840F001030A
:1011F00094E8070098471034AC42F6D3FEF77AFF24
:101200009C350008BC350008FEE770474FF480703D
:1012100000F01CB870B5044600F002F90546601CE9
:1012200002D004480078044400F0FAF8401BA042C1
:10123000FAD370BD08000020B0F5807F02D10249CA
:10124000012008707047000000000020044910B51C
:101250000A68024202D00860FFF7EEFF10BD0000EE
:10126000140401402DE9F84FDFF890A100220AF1A3
:10127000040B144601274FF00F090BF1040E00BFB9
:101280000B6807FA04F52B40AB4274D1DFF870C14C
:101290004E68A6EB0C0866452BD00DDC032E34D02F
:1012A00005DC36B3012E19D0022E2FD11BE0112EF2
:1012B00016D0122E2AD119E0B8F5881F19D006DCF5
:1012C000B8F5803F15D0B8F5801F1FD111E0B8F5F3
:1012D000001F0ED0B8F5041F18D10AE0CA6815E047
:1012E000CA68121D12E0CA6808320FE0CA680C32E0
:1012F0000CE08A682AB1012A4FF0080203D0456148
:1013000004E0042202E0056100E00022FF2B01D886
:10131000064601E000F104064FEA840501D9A5F173
:101320002005D6F800C009FA05F82CEA080C02FAE4
:1013300005F54CEA050CC6F800C04D68ED0057D520
:10134000304DAE6946F00106AE61AD6924F003068A
:1013500005F0010500952C4D06EB050CDCF8085056
:10136000A6074FEA167809FA08F6B543274EB042A9
:1013700002D1002610E03BE0254EB04201D101260B
:101380000AE0244EB04201D1022605E0224EB042CE
:1013900001D1032600E0042606FA08F62E43CCF815
:1013A00008604D68DAF80060ED03554601D51E432C
:1013B00000E09E432E604D68DBF80060AD035D46A3
:1013C00001D51E4300E09E432E604D68DEF80060AC
:1013D000ED02754601D51E4300E09E432E604D6828
:1013E000AD020E4D2E6801D51E4300E09E432E60D7
:1013F000641C102CFFF444AFBDE8F88F00040140DA
:1014000000001110001002400000014000080140DF
:10141000000C014000100140001401400C04014088
:1014200001488068704700000800002070B5040083
:101430001BD094F83D00002520B984F83C5020468C
:1014400000F032FA242084F83D002068016821F081
:101450000101016000F0C0FB3D4A6168914201D882
:101460003C4900E03C49884201D2012070BD3B4923
:101470002368B0FBF1F159606368934206D94FF4D9
:10148000967359434FF47A73B1FBF3F12368491C07
:101490001962616891420AD84900401EB0FBF1F020
:1014A000401CC0F30B0004281ED204201CE0A368DB
:1014B000CBB301EBC10202EB0116421EB2FBF6F206
:1014C000521C42F48042120536D06BB301EBC102CC
:1014D00002EB0111401EB0FBF1F0401CC0F30B0009
:1014E00040F4804040F400402168C861D4E907011D
:1014F000084321680860D4E9031008432168886024
:10150000D4E9050108432168C8602068016841F0FA
:10151000010101602564202084F83D00256384F8E2
:101520003E50002070BD00E008E001EB4106421E85
:10153000B2FBF6F2521CC6E70120D5E701EB4101F0
:10154000401EB0FBF1F0401CC0F30B00CAE70000E6
:10155000A086010080841E0000093D0040420F006B
:101560002DE9F84F1F4690468A460446DDF828903C
:10157000FFF756FF054694F83D0020287ED1192339
:10158000012278492046009500F0CFFE0028F5D1D1
:1015900094F83C00012871D0012084F83C002068B8
:1015A0000168C90703D1016841F0010101602068A9
:1015B000016821F400610160222084F83D001020C0
:1015C00084F83E0000262664C4F8248067856648B7
:1015D000E062608D20852B464A465146204600F049
:1015E000C3FD28B1206C84F83C60042850D073E01F
:1015F000208D5E4F68B1012814D002282068016850
:101600001ED041F4806101602068416980690090CA
:101610009AE02068416981690091016841F4007194
:10162000016091E02068016821F48061016072B678
:101630002068416981690091016841F400710AE004
:1016400041F40061016072B62068416981690091CE
:10165000016821F48061016062B675E0032850D80A
:1016600001280CD002284B464FF000023946204694
:10167000009512D000F059FE70BB13E070E02A46CE
:101680004946204600F0C6FE28B1206C202823D011
:101690000120BDE8F88F20684BE000F046FED8B985
:1016A00072B61BE02068016821F48061016072B6A7
:1016B00020680169606A421C62620170208D401ED0
:1016C0002085608D401E60854B46002239462046AD
:1016D000009500F02AFE08B10320DAE720680168CF
:1016E00041F40071016020680169606A421C626215
:1016F0000170208D401E2085608D401E608562B681
:10170000C9E72A464946204600F084FE0028BCD19D
:1017100020680169606A421C62620170208D401E6F
:101720002085608D401E608520684169C943490756
:101730000AD40169606A421C62620170208D401EF9
:101740002085608D401E6085208D002886D1202058
:1017500084F83D0084F83E6084F83C60002098E7FF
:10176000022096E7020010000000FFFF04000100C5
:101770002DE9F84F1F4690468A460446DDF828902A
:10178000FFF74EFE064694F83D0020287ED119232F
:10179000012243492046009600F0C7FD00287DD174
:1017A00094F83C00012879D0012084F83C0020689E
:1017B0000168C90703D1016841F001010160206897
:1017C000016821F400610160212084F83D001020AF
:1017D00084F83E0000252564C4F8248067853148DC
:1017E000E062608D208533464A465146204600F02F
:1017F0002BFD28B1206C84F83C5004284CD00DE01F
:10180000206841698069009030E0324649462046B0
:1018100000F031FE28B1206C042838D00320BDE848
:10182000F88F606A411C6162216800780861608DF0
:10183000401E6085208D401E80B2208521684A6947
:10184000D24352070BD450B1606A421C62620078E6
:101850000861608D401E6085208D401E20853246C7
:101860004946204600F03AFD0028D4D1208D0028BA
:10187000CBD154F83D0B016841F400710160202088
:1018800004F81E09E57765770020C8E706E02068C0
:10189000016841F4007101600120C0E70220BEE749
:1018A000020010000000FFFF30B585B0002100915C
:1018B0000191029103911E4D03681E4C12210322D7
:1018C0001D48AB4216D1A36943F00803A361A36985
:1018D000039203F008030493C023CDE90031694665
:1018E000FFF7C0FCE06940F40010E061E06900F43B
:1018F000001019E0114DAB4217D1A36943F0080362
:10190000A361A369039203F0080304934FF44063B7
:10191000CDE900316946FFF7A5FCE06940F480009D
:10192000E061E06900F48000049005B030BD000083
:101930000054004000100240000C014000580040DC
:1019400002488168027811448160704708000020D5
:10195000074810B5016841F010010160032000F054
:1019600073F8002000F006F800F024F8002010BD05
:101970000020024070B50D4D04464FF47A7128786E
:10198000B1FBF0F00A490968B1FBF0F000F0FCFA95
:1019900048B9102C07D200222146501E00F034F81E
:1019A00000206C6070BD012070BD000008000020A8
:1019B000140000200C4808B5816941F001018161E3
:1019C000816901F001010091C16941F08051C1615B
:1019D000C06900F0805000900448416821F0E06147
:1019E00041F00071416008BD00100240000001405C
:1019F00000F01F02012191404009800000F1E02029
:101A0000C0F8001170470000F0B40E4B1B680C4684
:101A1000C3F30223C3F10705042D00D90425191DC2
:101A2000072901D2002300E0DB1E012606FA05F19A
:101A3000491E214099409E40761E16403143F0BC1D
:101A400000F07ABD0CED00E0064900F007020868DE
:101A50004FF6FF03184040EA0220034A1043086093
:101A6000704700000CED00E00000FA052DE9F0479A
:101A7000DFF8548105460E46D8F8000000F0070054
:101A8000B0420CD2D8F8001021F007013143C8F859
:101A90000010D8F8000000F00700B0426FD12868AD
:101AA0004A4C810712D5400703D5606840F4E060D6
:101AB00060602878000703D5606840F4605060607B
:101AC0006068A96820F0F000084360602878C007CB
:101AD00044D06868012816D02168022816D08907EA
:101AE00000294CDA616821F0030101436160FFF7CE
:101AF00097FC6968074641F2883001290ED0022917
:101B0000814618D026E021688903E9E78901E7E7E3
:101B1000FFF786FCC11B494501D918E08146606882
:101B2000C0F381000128F3D118E000BFFFF778FC73
:101B3000C11B49450BD86068C0F381000228F5D16C
:101B40000CE000BFFFF76CFCC11B494502D9032024
:101B5000BDE8F087606810F00C0FF3D1D8F80010E2
:101B6000404601F00701B1420BD9016821F007019D
:101B700031430160006800F00700B04201D001204D
:101B8000E6E72878400705D56068E96820F4E0605A
:101B9000084360602878000706D56068296920F44A
:101BA000605040EAC100606000F036F86168084AA1
:101BB000C1F30311515CC840064908600020FFF7DB
:101BC000D9FE0020C4E700000020024000100240BF
:101BD000843500081400002004480549006849685D
:101BE000044AC1F30221515CC84070471400002030
:101BF000001002409435000804480549006849680F
:101C0000044AC1F3C221515CC8407047140000204F
:101C1000001002409435000812A185B00FC98DE86C
:101C20000F0014A0144A006804905168134801F092
:101C30000C03042B10D0082B0ED1C1F38343C9032E
:101C40001DF803000AD5516804AAC1F34041515C54
:101C50000A4A5043B0FBF1F005B0704708494843C9
:101C6000FAE7000002030405060708090A0B0C0D39
:101C70000E0F1010010200000010024000127A0046
:101C800000093D002DE9F84F04460078B94DC00722
:101C900048D06868C0F38100012807D06868C0F3A5
:101CA0008100022809D16868C00306D5286880032E
:101CB00038D5606800286FD034E06068B0F5803FA8
:101CC0000BD010B1B0F5A02F11D0286820F48030CF
:101CD0002860286820F4802002E0286840F48030E2
:101CE0002860606888B1FFF79BFB064609E028681A
:101CF00040F480202860F0E7FFF792FB801B642807
:101D000075D828688003F7D50CE0FFF789FB0646F5
:101D100005E000BFFFF784FB801B6428F0D828682B
:101D20008003F7D42078944E80074FF001094FF0DC
:101D300000083BD5686810F00C0F07D06868C0F346
:101D40008100022809D16868C00306D4286880078A
:101D500014D5206901281FD110E02069B0B1C6F860
:101D60000090FFF75DFB074605E000BFFFF758FB5B
:101D7000C01B0228C4D828688007F7D52868616985
:101D800020F0F80040EAC10028600FE0C6F80080AB
:101D9000FFF746FB074606E0E9E000BFFFF740FB20
:101DA000C01B022823D828688007F7D420780007B2
:101DB0002CD57248A169D9B1C0F80090FFF730FB6B
:101DC000074604E0FFF72CFBC01B02280FD8686A07
:101DD0008007F7D56A484FF4FA510068B0FBF1F07C
:101DE000009000BF0098411E0091FAD20EE080E002
:101DF000C0F80080FFF714FB074604E0FFF710FB74
:101E0000C01B022875D8686A8007F7D4207840077D
:101E100060D5E8690027C00008D4E86940F0805028
:101E2000E861E869012700F080500090554801689A
:101E3000C90513D40168834641F480710160FFF73E
:101E4000EFFA824606E000BFFFF7EAFAA0EB0A00CD
:101E500064284ED8DBF80000C005F5D5E0680128FD
:101E60000AD008B1052813D0286A20F001002862A2
:101E7000286A20F0040002E0286A40F0010028628D
:101E8000E06841F2883B98B1FFF7CAFA82460BE05E
:101E9000286A40F004002862EEE700BFFFF7C0FAAE
:101EA000A0EB0A0159455AD8286A8007F6D50CE0FC
:101EB000FFF7B6FA824605E0FFF7B2FAA0EB0A0197
:101EC00059454CD8286A8007F6D41FB1E86920F03C
:101ED0008050E861E06988B36968C1F38101022933
:101EE00045D00228C6F8608004D0FFF799FA04466E
:101EF00038E034E0FFF794FA074604E0FFF790FA81
:101F0000C01B02282BD828688001F7D4206AB0F5BE
:101F1000803F05D16868A16820F4003008436860FC
:101F2000D4E908010843696821F474110843686022
:101F3000C6F86090FFF774FA044606E015E000BFAB
:101F4000FFF76EFA001B022809D828688001F7D530
:101F50000BE000BFFFF764FA001B022802D9032040
:101F6000BDE8F88F28688001F4D40020F8E701204C
:101F7000F6E70000001002400000424280044242A6
:101F8000140000200070004010B5401EB0F1807FAA
:101F900001D3012010BD4FF0E02460610F216017D4
:101FA00000F0CAFA0020A06107202061002010BDC7
:101FB00070B5040004D094F83900002510B106E093
:101FC000012070BD84F83850204600F023F824200A
:101FD00084F839002068C16821F40051C1602046AE
:101FE00000F00CFB2068016921F490410161206838
:101FF000416921F02A0141612068C16841F4005122
:10200000C160E563202084F8390084F83A0000209C
:1020100070BD000030B585B0002400940194029496
:10202000039400681449884224D11448816941F41A
:1020300080418161816901F480410491816941F0AD
:102040000401816180690E4D00F0040004904FF49A
:1020500000700090022001900320039069462846FA
:10206000FFF700F92815CDE90004694628460294D7
:10207000FFF7F8F805B030BD00380140001002400D
:10208000000801402DE9F843044690F839001F4646
:1020900016460D46202850D1A5B19EB194F83800BF
:1020A00001284AD0012084F838004FF00008C4F815
:1020B0003C80212084F83900FFF7B2F9A6848146DC
:1020C000E68426E00120BDE8F883E08C401EE08431
:1020D000A0684B46B0F5805F4FF000024FF08001E2
:1020E0002046009703D000F041FBE8B90DE000F076
:1020F0003DFBC8B928882168C0F308004860206902
:1021000008B16D1C05E0AD1C03E0216815F8010B5A
:102110004860E08C0028D8D14B4600224021204660
:10212000009700F023FB08B10320CCE7202084F8BF
:10213000390084F838800020C5E70220C3E7FEE7B5
:1021400001684A69D24352050CD46FF480624A6137
:1021500004210164002140F8301F202242730173E2
:1021600001207047002070472DE9F84F0446C06AEF
:102170001E4692460D4621680A6842F480620A6053
:10218000042807D0012805D010F5803F02D0206B2D
:10219000112804D12068016841F4807101604FF07A
:1021A00001185346002241462046009600F0BDF833
:1021B000B8BB206908F10109B0F5804F12D00620A4
:1021C000216800EAD51747F0F0000861334652460F
:1021D00008F10701204600F0D9F838B1206C042836
:1021E0002FD01EE0E8B240F001001FE02168E8B205
:1021F0000861334652464946204600F0C7F8002899
:10220000ECD12068416981690091016841F48071D5
:1022100001605346002241462046009600F085F8B2
:1022200010B10320BDE8F88F47F0F1002168086184
:10223000334652464946204600F0A8F80028CDD142
:10224000F0E70120EEE70000F8B50446C06A1E463C
:102250000D461746042807D0012805D010F5803F09
:1022600002D0206B122804D12068016841F48071EB
:102270000160134600224FF001112046009600F045
:1022800054F8A0B92069B0F5804F12D0062021681B
:1022900000EAD51040F0F000086133463A460E4996
:1022A000204600F073F838B1206C042811D00320C8
:1022B000F8BD05F0FE0000E0E8B2216808610649BB
:1022C00033463A46891F204600F060F80028EBD1DB
:1022D000F8BD0120F8BD00000800010070B51646E9
:1022E0000D4604461AE02046FFF72AFF08B10120F8
:1022F00070BD681C12D025B1FFF792F8801BA84270
:102300000CD954F8400F40F0200044F81009002088
:102310002060202161732073032070BD2068406914
:10232000C0434007DFD4002070BD2DE9F0471E46B2
:1023300090460D460446C1F30747DDF8209012E0B1
:10234000701C10D02EB1FFF76BF8A0EB0900B04263
:1023500009D9002044F8300F20216173A073207345
:102360000320BDE8F0872068012F0AD0806925EAA4
:1023700000000004000C06D000214145E0D0002000
:10238000EFE74069F3E70121F7E700002DE9F047A7
:102390009A4691460D46044600264FF02008C1F3A8
:1023A00007472AE020684069C043400512D42068EE
:1023B000016841F40071016021686FF48060486138
:1023C00004202064266384F83D8084F83C6001206A
:1023D000BDE8F087B9F1FF3F0FD0B9F1000F05D08C
:1023E000FFF71EF8A0EB0A01494506D944F8306F03
:1023F00084F80D8026730320EAE72068012F07D0B8
:10240000D0F8180025EA00000004000CE0D0C9E76D
:102410004069F7E72DE9F041002590460E46044655
:10242000202721E04069C043C0060CD421686FF02A
:10243000100048612564256384F83D7084F83C50A1
:102440000120BDE8F0812EB1FEF7EAFFA0EB080005
:10245000B04209D954F8400F40F0200044F8040974
:10246000677025700320ECE720684169C94349067D
:10247000D8D40020E5E770B516460D4604461AE0AC
:102480002046FFF75DFE08B1012070BD681C12D028
:1024900025B1FEF7C5FF801BA8420CD954F8400FA8
:1024A00040F0200044F810090020206020216173D2
:1024B0002073032070BD20684069C0430006DFD44C
:1024C000002070BD00B585B00020039016488169DA
:1024D00041F020018161816901F02001049181694D
:1024E00041F008018161816901F00801049181696D
:1024F00041F0040181618069694600F004000490A4
:102500004FF4807000900948019001200290084823
:10251000FEF7A8FE002201211720FFF775FA172009
:10252000FFF766FA05B000BD001002400000211060
:1025300000080140FEE770470907090E002806DA87
:1025400000F00F0000F1E02080F8141D704700F14A
:10255000E02080F80014704770477047FFF7F0B92B
:1025600030B58FB028216846FEF772FA14210AA808
:10257000FEF76EFA01210804CDE900100024029450
:1025800002250491CDE907504FF4E0100990684608
:10259000FFF778FB0F20CDE90A056802CDE90C4072
:1025A00002210AA80E94FFF761FA0FB030BD0000B7
:1025B0000D48016841F00101016041680B4A11407A
:1025C000416001680A4A11400160016821F48021DC
:1025D0000160416821F4FE0141604FF41F018160F8
:1025E0000449C00308607047001002400000FFF873
:1025F000FFFFF6FE08ED00E0704700002DE9F04116
:10260000044600680169E26821F440511143016108
:102610002169A0680843616908432168CA6841F2DA
:102620000C639A430243CA6020684169A26921F49D
:102630004071114341614C4920686425322688422B
:102640003CD1FFF7D9FA00EBC00101EB0010616843
:102650008900B0FBF1F7FFF7CFFA00EBC00101EB07
:1026600000106168B0468900B0FBF1F0B0FBF5F0F6
:102670006FF01801484307EB800106EB0110B0FB37
:10268000F5F000F0F006FFF7B7FA00EBC00101EB40
:10269000001061688900B0FBF1F0B0FBF5F006EBCB
:1026A0000016FFF7A9FA00EBC00101EB001061680A
:1026B0008900B0FBF1F7FFF79FFA3BE0FFF78CFAD8
:1026C00000EBC00101EB001061688900B0FBF1F77D
:1026D000FFF782FA00EBC00101EB00106168B04621
:1026E0008900B0FBF1F0B0FBF5F06FF01801484342
:1026F00007EB800106EB0110B0FBF5F000F0F006EF
:10270000FFF76AFA00EBC00101EB00106168890075
:10271000B0FBF1F0B0FBF5F006EB0016FFF75CFA4A
:1027200000EBC00101EB001061688900B0FBF1F71C
:10273000FFF752FA00EBC00101EB0010616889005D
:10274000B0FBF1F0B0FBF5F06FF01801484307EB78
:10275000800108EB0110B0FBF5F0216800F00F00DC
:1027600030448860BDE8F081003801402DE9F04137
:10277000984617460E460446069D1DE0681C1BD071
:102780002DB1FEF74DFEA0EB0800A84214D9206839
:10279000C16821F4D071C1602068416921F0010154
:1027A0004161202084F8390084F83A00002084F840
:1027B00038000320BDE8F0812068006836EA000098
:1027C00004D00020B842D9D00020F3E70120F9E777
:1027D000FEE700000FB4054B10B503A9044A0298A8
:1027E00000F0CAF810BC5DF814FB0000A930000826
:1027F0001800002002E008C8121F08C1002AFAD100
:1028000070477047002001E001C1121F002AFBD170
:10281000704700002DE9FF5FDDE90220010DDDF8C2
:1028200038B0024318D044F61050A1F2FF314143B2
:102830000D140F98012820D0A5EB0B00401C5FEA77
:10284000000A4FF00004474EDFF81C91A0465046A6
:1028500016D5CAF1000728E00F98012443A20128E9
:1028600008D0002100980F9BC0E90021C0E9024375
:10287000BDE8FF9F6FEA0B01F4E7CBF10000DEE754
:10288000074612E0F80707D022463346404649463D
:10289000FEF758FA804689462246334610461946C6
:1028A000FEF750FA04460E467F10002FEAD1DDE90C
:1028B0000201BAF1000F42464B4602DAFEF742FA35
:1028C00001E0FEF7F3FB04460E460022284BFEF71C
:1028D00075FC03D84FF0FF30014607E00022254B7E
:1028E00020463146FEF787F9FEF74FFC102409E039
:1028F000002C0ADB0A220023FEF7F4FA019B303297
:102900001A55641E50EA0102F2D1641C019AC4F106
:10291000110314440F9A012A03D0012208430DD158
:102920000AE0084304D000204FF0110B0F9080E71D
:10293000A3EB0B056D1E0DE05B4504DD4FF00002BF
:1029400005F1010504E003DA4FF00002A5F10105ED
:10295000002AECD000980F99C0E90231C0E9004587
:1029600086E70000000024400000F03F3000000037
:102970000000F0430000E03F2DE9FF4F95B09B467B
:102980008946064600250FE2252877D100242746F0
:10299000F84A0121059400E0044316F8013F203B6A
:1029A00001FA03F01042F7D130782A2811D06FF0E5
:1029B0002F033078A0F13002092A16D8059A44F086
:1029C000020402EB820203EB42021044761C0590E3
:1029D000EFE759F8042B0592002A03DA504244F439
:1029E0000054059044F00204761C30782E2816D14D
:1029F00016F8010F44F004042A280DD06FF02F02BE
:102A00003078A0F13003092B09D807EB870302EBDC
:102A10004303C718761CF3E759F8047B761C30781B
:102A20006C280FD006DC4C2817D068280DD06A28F7
:102A300014D104E0742810D07A280FD10DE044F4AA
:102A400000140AE044F4801401E044F44014727865
:102A5000824202D104F58014761C761C30786628F8
:102A60000BD013DC582877D009DC002875D0452816
:102A7000F6D04628F4D047281AD19DE118E0632803
:102A800035D0642879D0652812D195E1702873D0AB
:102A900008DC6728F1D069286FD06E280DD06F2828
:102AA00006D1B5E073282CD0752875D0782874D05D
:102AB0005A46179990476D1C75E1C4F302500228DD
:102AC00009D003280DD0D9F8001004280DD00D60CE
:102AD00009F1040967E1D9F80010EA17C1E90052C9
:102AE000F6E7D9F800100D80F2E70D70F0E719F85D
:102AF000041B8DF8001000208DF80100EA4601202B
:102B000003E059F804AB4FF0FF3061074FF00001CC
:102B100002D40DE008F101018846B9420FDA804580
:102B2000F8DB1AF808100029F4D108E008F10101D7
:102B300088468142FADB1AF808100029F6D1059878
:102B40005B46A0EB080721463846179A00F094FA36
:102B5000284400EB080507E04DE029E10DE01AF8F4
:102B6000010B5A4617999047B8F10108F7D25B4616
:102B700021463846179A13E142E00A220092C4F334
:102B800002524FF0000A022A08D059F804CB032A57
:102B90004FEAEC710AD00DE029E02AE009F10701C3
:102BA00021F00702F2E802C1914609E00FFA8CFC1D
:102BB0004FEAEC71042A03D14FFA8CFC4FEAEC7116
:102BC000002907DA0A460021DCF1000C61EB020162
:102BD0002D2202E0220504D52B228DF804200122AB
:102BE00003E0E20701D02022F7E7904659E00A21EE
:102BF00002E010220DE010214FF0000A00910BE0DE
:102C000010224FF0000A44F004040827009203E069
:102C100008224FF0000A0092C4F30252022A05D0A3
:102C200059F804CB0021032A08D009E009F1070173
:102C300021F00702F2E802C1914605E01FFA8CFC80
:102C4000042A01D10CF0FF0C4FF00008220728D510
:102C5000702806D0009B83F0100353EA0A0305D0C6
:102C60000EE040228DF80420012208E05CEA010217
:102C700006D030228DF804208DF8050002229046FF
:102C8000009B83F0080353EA0A030AD15CEA0102BD
:102C900001D1620705D530228DF804204FF00108DC
:102CA0007F1E582804D034A003900EA802900DE097
:102CB00036A0F9E753466046009AFEF713F98446BA
:102CC0000398825C0298401E029002705CEA010048
:102CD000F0D1029806A9081A00F1200A600702D56F
:102CE00024F4803400E00127574502DDA7EB0A00F9
:102CF00000E0002000EB0A01009005984144401AD2
:102D00000590E00306D45B462146179A059800F02B
:102D1000B3F90544002706E001A85A46C05D17999B
:102D200090476D1C7F1C4745F6DBE0030CD55B46E6
:102D30002146179A059800F09FF9054404E03020D9
:102D40005A46179990476D1C0099481E009000291B
:102D5000F5DC08E0029802995A460078491C029175
:102D6000179990476D1CBAF10001AAF1010AF1DC34
:102D700065E100000928010030313233343536373F
:102D800038396162636465660000000030313233B7
:102D90003435363738394142434445460000000057
:102DA00000F058F90544761C307800287FF4ECAD2B
:102DB00019B02846BDE8F08F620700D4062709F154
:102DC000070222F0070CFCE80223E14603F000486A
:102DD0005FEA080C02D00FF2702C0DE05FEA045C91
:102DE00002D50FF2682C07E05FEAC47C02D00FF234
:102DF000602C01E0AFF2700C4FF0FF3823F000437D
:102E0000CDF850C065280CD006DC452809D04628EE
:102E10001DD047283DD13DE0662818D067287ED1D7
:102E200038E00021112F01DB112000E0781CCDE9F2
:102E3000000106A90EA8FFF7EDFCDDE90F010E9ACF
:102E400003910021009207F1010A04914DE04FF037
:102E500000400097CDE9011006A90EA8FFF7DAFCA3
:102E6000DDE90F0203920E9B11990022DDF80CA000
:102E70000093049211B9791C00EB010AB7EB0A0028
:102E800004D4C0F1FF3007F1010A0490AAEB070057
:102E9000019044E0012F00DA01270021112F01DD0C
:102EA000112000E03846CDE9000106A90EA8FFF781
:102EB000B1FCDDE90F010E9A03910021049100920B
:102EC000BA4621070CD40399514500DA8A46BAF173
:102ED000010F05DD009AAAF10101515C302908D0EB
:102EE000B84202DA10F1040F06DA0121CDE901102F
:102EF00015E0AAF10101E9E7002805DC0499014485
:102F00000491AAEB000102E0411C514500DD8A4614
:102F10000499401A401C01904FF000400290200795
:102F200004D40198504501DBCDF8048000208DF8D1
:102F30004F0002980DF14F07B0F1004F25D02B2024
:102F40000E9002984FF0020800280CDA40420290DE
:102F50002D200E9007E00A210298FDF7ADFF3031D9
:102F6000029007F8011DB8F10001A8F10108F2DC98
:102F700002980028EFD1791E0E980870307800F082
:102F8000200040F0450007F8020D12A8C01B00F118
:102F900007081498007800B1012000EB0A0101989D
:102FA00001EBE07105984144401A401E0590E00392
:102FB00006D45B462146179A059800F05DF8054453
:102FC0001498007818B15A46179990476D1CE00381
:102FD00024D55B462146179A059800F04DF8054424
:102FE0001CE00498002807DBDDE90301884203DDCB
:102FF0000098405C179901E0179930205A46904795
:10300000049805F10105401C04900198401E0190B0
:1030100004D12E205A46179990476D1CBAF1000131
:10302000AAF1010ADDDC05E017F8010B5A461799F1
:1030300090476D1CB8F10001A8F10108F4DC5B4673
:103040002146179A0598ABE62D0000002B000000E2
:10305000200000002DE9F041044600251E461746D9
:10306000880404D405E039462020B0476D1C641E56
:10307000F9D52846BDE8F0812DE9F0410446002548
:103080001E469046C80301D5302700E0202788045B
:1030900004D505E041463846B0476D1C641EF9D59D
:1030A0002846BDE8F081000013B54FF0FF33012240
:1030B00069460248FEF7E6FF00981CBD7405002033
:1030C000034A13680A4601460248FDF72BB8000080
:1030D00004000020B40500201FB5FEF739FCFFF7FF
:1030E0003FFAFFF7EFF939483749394D00240160BD
:1030F000C0E901540E14C0E9034644618461C4610F
:103100000462FEF793F931483249A83001604FF468
:10311000E131C0E901140C21C460C0E904418461BB
:10312000C461FEF745FF29482B4954300160C0E9CE
:103130000154C0E9034644618461C4610462FEF73E
:1031400075F94FF4FA70FEF765F800F095F900F0A4
:1031500087F8224E224F002530780028FCD03470AA
:10316000684600F055F802A96846FFF7A9FF03A9D1
:1031700001A800F0C1F90098B84223DD0198B842D7
:1031800020DD1849029841F82500A1F51671039831
:1031900041F825006D1CADB2962DDDD39621114866
:1031A00000F07AF8014610A0FFF714FB96221349AD
:1031B0000C4800F0BFF8FDF73CFE02460B4610A09D
:1031C000FFF708FB0025C7E700540040CC040020AF
:1031D000A086010000380140005800400000002097
:1031E0000050C34774020020D0C4C2CAA3BA2564E9
:1031F0002020B4CE2F6D696E202020001C000020FE
:10320000D1AAD1F5A3BA252E3266202025250A00A1
:103210007CB5044606226946072000F005F99DF8B2
:1032200000009DF80110000440EA01209DF8021002
:103230009DF8042008439DF80310C0F31100090411
:1032400041EA02219DF805201143C1F31105FDF764
:10325000EBFD20602846FDF7E7FD60607CBD0000C7
:1032600038B50A4C0A4B0B4A206800901D21A3F187
:103270001800FDF7C8FB064B206874330090054A20
:103280001D21A3F18000FDF7BEFB38BD0400002026
:10329000CC050020103500082DE9F041064600203D
:1032A0000F468046044606E056F82410FDF7DBFB87
:1032B000641C8046A4B2BC42F6D33846FDF7B4FD88
:1032C00001464046FDF759FC8046002411E000BF4E
:1032D00056F824004146FDF7E5FD08D206EB8400D0
:1032E00041464068FDF7D4FD01D2254603E0641C49
:1032F000A4B2BC42ECD3641CA4B2BC420ED256F8B9
:1033000024004146FDF7CEFDF5D206EB8400414690
:103310004068FDF7BDFDEED2601B85B2A5F10F0040
:10332000552805D240F6B830B0FBF5F0BDE8F08185
:103330000020FBE72DE9F05FD0F800B006460868F2
:1033400017460D46D94682468046012422E000BF3A
:1033500056F824105846FDF79BFD01D256F824B0CC
:1033600056F824104846FDF79DFD01D256F82490EA
:1033700055F824105046FDF78BFD01D255F824A0D6
:1033800055F824104046FDF78DFD01D255F82480F4
:10339000641CA4B2BC42DBD349465846FDF7B5FBDA
:1033A000044641465046FDF75EFB2146FDF7B3FB60
:1033B000054641465046FDF7A8FB04464946584697
:1033C000FDF751FB2146FDF7A6FB2946FDF7D5FB8E
:1033D000FDF72FFD05460C460D4A0E4BFDF7B2FCDE
:1033E00006460F46284621460B4A0C4BFDF7AAFC21
:1033F0002A462346FDF7A6FC32463B46FDF7FBFB7B
:10340000074A084BFDF7F7FBBDE8F05FFDF724BD69
:10341000B4C876BE9F5A3E4048E17A14AE8746C093
:10342000AE47E17A14B657407CB514460D468DF888
:1034300004000A26012301AAAE2106480096FEF7E1
:1034400097F923462A46AF2102480096FEF788F8EE
:103450007CBD0000CC0400201CB502238DF80400C4
:103460000A208DF80510009001AAAE210148FEF750
:103470007FF91CBDCC04002008B540210920FFF7CE
:10348000EBFF0520FDF7C6FEE0210220FFF7E4FF79
:1034900000210320FFF7E0FF00210420FFF7DCFFFD
:1034A00000210520FFF7D8FF00210620FFF7D4FFF9
:1034B0004F210820FFF7D0FF03210920FFF7CCFFA1
:1034C0002A210A20FFF7C8FF2F210C20FFF7C4FF95
:1034D0002F210D20FFF7C0FF01212120FFF7BCFFA6
:1034E000012269460020FFF79FFF0122694610462E
:1034F000FFF79AFF08BD0000034A13680A46014619
:103500000248FCF70FBE000004000020C0050020A8
:103510007B34CABA6FEE10BBC55D57BB450C91BB7F
:103520004DEE9BBB741C45BBE8AC0F3B52B1423C1B
:103530006113D83C8D3E383D2017873D9BAFB13D90
:1035400009EDD53DD248EE3DF5DEF63DD248EE3DE3
:1035500009EDD53D9BAFB13D2017873D8D3E383DF0
:103560006113D83C52B1423CE8AC0F3B741C45BBE4
:103570004DEE9BBB450C91BBC55D57BB6FEE10BBC1
:103580007B34CABA000000000000000001020304FE
:10359000060708090000000001020304BC3500080A
:1035A000000000201C000000F4270008D8350008A7
:1035B0001C0000209C0A00000428000800000000F5
:1035C00001000000010000001000000000000000E9
:0835D00000A24A040000000003
:04000005080000ED02
:00000001FF
